:020000040800F2
:1000000000A00020D5FD00083DFE00083DFE0008D0
:100010003DFE00083DFE00083DFE00080000000017
:100020000000000000000000000000003DFE00088D
:100030003DFE0008000000003DFE0008A94B00083E
:100040003DFE00083DFE00083DFE00083DFE0008A4
:100050003DFE00083DFE00083DFE00083DFE000894
:100060003DFE0008B94B00083DFE00083DFE0008BB
:100070003DFE00083DFE00084D8800083DFE0008DA
:100080003DFE00083DFE00083DFE00083DFE000864
:100090003DFE00083DFE00083DFE00083DFE000854
:1000A000759E0008C99E0008659E00083B870008F1
:1000B000B99E0008A99E0008999E00083DFE000810
:1000C0003DFE00083DFE00083DFE00083DFE000824
:1000D0003DFE0008458800083D8800083DFE0008F8
:1000E000BD4B00083DFE00083DFE00083DFE000837
:1000F000959E00083DFE0008859E00083DFE000814
:100100000000000000000000000000003DFE0008AC
:100110003DFE00083DFE00083DFE00083DFE0008D3
:100120003DFE00083DFE00083DFE00083DFE0008C3
:100130003DFE00083DFE0008000000000000000039
:100140003DFE00083DFE00083DFE000800000000E6
:10015000000000000000000000000000000000009F
:1001600000000000000000003DFE00083DFE000809
:100170003DFE00080000000000000000000000003C
:08018000000000003DFE000834
:1001C0002DE9F04FB1B009F0D5F918B909F038FBB5
:1001D0000BF018F8BF4DC04C09F0F2F92B7843F042
:1001E00001032B70BD4B4FF47002C3F8882000232D
:1001F000089309930A93236843F4803323602368A8
:1002000003F400330993089B01330893099B1BB93E
:10021000089BB3F5A04FF2D1236813F4003318BF45
:1002200001230993099B012B40F0798202230A9351
:10023000AB4B12221A606368636063686360636833
:1002400043F480636360636823F47C1363606368D2
:1002500043F4E8136360236843F0807323602368EA
:100260009901FCD5636823F003036360636843F07E
:1002700002036360636803F00C03082BFAD10A9B46
:10028000964F6B60974BFB60636A636ADFF89C82F2
:10029000DFF89CB2DFF89CA243F08073636263696D
:1002A00043F4FC0330AE636103238DF8723041F6F2
:1002B000FF7326F8503D4FF09040314605F0F4FAB8
:1002C0004FF6FF7331468848ADF8703005F0ECFA10
:1002D0003146404605F0E8FA3146844805F0E4FA34
:1002E0003146834805F0E0FA3146824805F0DCFAF1
:1002F000304607F00FFF1C9B7F4AB3FBF2F37F4AA7
:10030000DFF834E213607E4B7E4A4FF0000CC3F8F6
:1003100000C0C3F804C07C4B5A60F02287F8232049
:100320000722C3F808C01A60DBF80830CAF80030AA
:10033000BEE80F0037460FC7BEE80F000FC79EE8A4
:100340000F0087E80F00636943F40023636163696A
:1003500043F400236361636943F4002363616369C9
:1003600043F4003363614FF0904310221A8520223A
:100370001A8540221A854FF40043C8F818304FF40C
:100380008043C8F818304FF40053C8F81830674657
:10039000CDF80CA0391DF0593144083705F084FA26
:1003A000302FF7D1039B594AD3F80090584BDFF810
:1003B0008C811A60574B04221A7000213A4640463D
:1003C00011F09CFA0127002188F8001088F8181015
:1003D00088F8241088F80C70142217A811F08EFAEF
:1003E00019F4802F08BF4C4BDFF8FC8008BF1F704A
:1003F0002B784A4FDFF8489143F004032B7005F047
:1004000093FB474B1F60636943F480236361E36997
:1004100043F40013E361236B23F010032363236B86
:1004200043F010032363D8F8243023F00F03C8F8F7
:100430002430D8F8243043F00403C8F82430D8F826
:10044000243023F0F003C8F82430D8F8243043F0E7
:100450004003C8F8243002234FF0000A4FF48072A2
:100460008DF87430049331464FF0030340468DF805
:1004700075301C928DF876A08DF877A00AF060FD9B
:100480004FF40072314640461C920AF059FD3A681A
:10049000039B22F001023A603968224A0A403A601E
:1004A000214A3A613A6842F001023A60C7F808A06E
:1004B000C7F80CA0C7F808A0BA6842F40042BA60B6
:1004C0003A683A607A6822F0784222F400427A6010
:1004D0003A6837E0900700200010024000ED00E08D
:1004E000002002400005FA0500040048000C004806
:1004F000001000480014004840420F00E81000209F
:100500008C1000203F19010010E000E0160C0020C4
:100510001C1F0020400A00206C07002000540040EF
:10052000341A0020FFE0CF007A25E00000080048E0
:10053000800A0020DC0F0020501B0108440A002024
:10054000181E002042F001023A601F681022514636
:10055000484611F0D3F9049B8DF851304FF6FF72E5
:100560004FF0030307F0020713928DF852A08DF8A5
:1005700053A08DF8503087B130A9012741F8747D20
:1005800040460AF0DDFC0C2389F80030072389F887
:1005900001A089F8033089F802704FF4D87007F091
:1005A000A9FD63695F4843F0805343F00203636130
:1005B00007F0A0FD636943F0005343F00203636159
:1005C000594C20460AF0D3FB30460AF0A5FB4FF405
:1005D0008072564B22924FF480621C932392544BAC
:1005E0001D93202200232046249231464FF40052CE
:1005F0001E932093219325922693ADF87C700AF0E8
:1006000098FB236843F0010323604A4CA36823F05E
:100610004053A360A36843F08053A3600A2004F012
:100620005AFAA36823F08043A360A368A360A36879
:1006300043F00043A360A368002BFCDBA3683E4AA1
:10064000DFF8F08023F04053A360A36843F0005329
:10065000A3609168394B0B4043F468339360E268C0
:10066000374B134043F40053E360236B013F23F007
:100670000F031F4327630122002409EB0403997829
:1006800041B1571CFFB2DB7819F8041040460AF05C
:10069000FBFB3A460434102CEFD1264B9A6842F00B
:1006A00001029A601A68D207FCD5DA6822F00202C9
:1006B000DA60DA6842F00202DA60DA6842F00102D7
:1006C000DA609A6842F004029A60BBF9E830002BC5
:1006D0003ED007EE903ADFED1B6ABBF9EA301A4ACA
:1006E000F8EEE77A07EE103A67EEA67ABBF9EC303F
:1006F000CDED1C7A07EE903AB8EEC77AF8EEE77ABD
:10070000002127EE267A67EEA67A117030460F494F
:100710008DED1D7ACDED1E7A0AF0D2FC20E001238A
:100720000A93ACE500360010580402404004005023
:10073000281E00200004005000070050E010FCFFBD
:1007400007C0FFFD35FA8E3C9A00002040150020BE
:10075000BBF9EA20002ABCD1BBF9EC20002AB8D1B1
:10076000DFF85083BBF8F030DFF84CA3059300248A
:100770009BF8EF30C8F8004010222146C8F804402A
:10078000C8F80840BB4804932C729BF8F77011F02E
:10079000B5F8B94BA5F809402320CAF80040CAF8BB
:1007A0000440CAF808401C6004F095F90BAA012126
:1007B000752008F06FFBD146F0B1B04BCAF8043099
:1007C000AF4BCAF808300FAA4323012120468AF80C
:1007D000003008F05FFB9DF83C3003F07E038DF89D
:1007E0003C30002800F0EE80682B40F0EB800123C5
:1007F0006B721D238AF800306A7AA24B069300219F
:10080000042A197041F005809A4B9F4A9F4C1A6048
:100810009F4A5A609F4ADA602268079142F00100BD
:1008200020609A464FF0010940F2022040F2FD1E7E
:10083000049B0A2B28BF002309FA03F111EA000CDC
:1008400040F0ED8711EA0E0F00F0E987924B83F834
:1008500000C0924BC8F8003042F00302904BC8F839
:100860000430226023689B0702D5D8F800309847EF
:10087000DAF800300598DFF8448298474FF0000915
:10088000CA4688F800A01FB1BB1E022B00F2DB8015
:100890003346012200210C208DF8709008F080FA78
:1008A000002800F0D0809DF87030482B40F0CB80BD
:1008B0007C4B7D4A1A607D4A5A60062388F80030D6
:1008C000236843F0080323609BF8E4300BB1069AD9
:1008D00013709BF8E5300BB16F4A13709BF8E6304C
:1008E0000BB188F800309BF8F830042B00F2B2808E
:1008F000012404FA03F212F016085ED112F0090F77
:1009000000F0A6800A2004F0E6F813AB2246A021EE
:10091000772008F045FA00284FD022461E21772084
:1009200008F03AFB4FF42F60614F04F0C9F8C1465C
:100930003C46A8F1600133460222C9B277208DF807
:1009400070908DF8719008F02BFA9DF870209DF84A
:10095000713043EA022328F8073008F10208B8F1A1
:10096000100FE6D1FA89002302F00F0602F47F424D
:10097000FA8119460127481034F81000002818BFE2
:10098000002711F0010F1ABFC0B2434083EA1023C1
:10099000082013F4004F18BF83F4C05301384FEA06
:1009A0004303F6D101311029E5D13243E28127B961
:1009B000C3F303339E4200F03D872B7A43F02003BC
:1009C0002B724CE09DF82C3003F07E03682B8DF8E1
:1009D0002C3033D1022306216B723246D9F8043011
:1009E000084698479DF875309DF873209B0052008B
:1009F00002F0020203F0040313439DF8712002F099
:100A000001021343DAB25BB1012A02D10023AB72B7
:100A1000F2E6022A01D10123F9E7022004F065F889
:100A2000D9F8043013AA01210C2098479DF84C30C6
:100A300013F00F03F1D0042BEDD1E7E7702B04BFC7
:100A400004236B72D8E6012F7FF63EAF002718E72C
:100A5000012BB2D00D4A136843F0040313606B6896
:100A6000012B02BF2B7A43F040032B722C7A3CB34C
:100A70002046D3E7F41200202C1A0020958E00089F
:100A8000AD8F0008F8040020E58C0008DC09002088
:100A9000198C000890C1793D580500208D8D000803
:100AA0005D8C000858100020295600086555000884
:100AB0003C1A00204C0500201C1A00206010002069
:100AC0002B7843F002032B70A64D4FF480432B8507
:100AD0004FF40043AB611026013E15D0AB8A9BB2A8
:100AE00083F48043AB82AB8A9BB283F40043AB8236
:100AF000AB8A9BB283F40053AB82192003F0EBFF67
:100B0000192003F0E8FFE7E74FF40043AB614FF42F
:100B10008043AB61944E4FF40053AB6132681007D1
:100B200005D5924B1B689847914B01221A70914B47
:100B3000DFED916A1B68914D1A7B914B1A80914BA6
:100B40001B8807EE103AB8EEC77A8F4BC6EE877A4D
:100B50001B22FF2128469FED8D7A67EE877AC3ED31
:100B6000007A10F0CBFE00222A703268884B0121F7
:100B700012F0020F1970284604D069700321197011
:100B80000221A970510704D519784D1C1D70032549
:100B9000455412F00A0F40F05E86039A1568AA06C3
:100BA00004D51A78511C1970072181549BF805202F
:100BB000082A01D00E2A04D11A78511C19700B2171
:100BC00081541A786F0702F101014FF00C06865428
:100BD000C9B248BF0232197042BF1A701022425483
:100BE0001A781226511CC9B286546E05197004D5A4
:100BF0009BF8B861002E40F03D86A90504D51A780F
:100C0000511C197015218154EA0504D51A78511C1C
:100C100019701A238354982200215E485D4DDFF835
:100C2000A0A110F06BFE012003F05CFE4C2758B32E
:100C3000012C29DC07FB04F905EB090898F84A6048
:100C400016B10134E4B2F2E7037990F9000001969D
:100C50000AEB8303032200921B6B3246012103F04F
:100C6000E3FD834660B104FB07504C22314610F08F
:100C700045FE01231C4445F809B088F84A30E4B227
:100C8000012003F00DFED2E7434B2A681A60434B64
:100C9000434E444A1E60002313809370424ADFF89B
:100CA00024C113605360414ADFF81CE11468404AD4
:100CB0001660404AF0891370A6F59B76B6F8462177
:100CC000643204F17D0107B212B2A3F10805EDB25E
:100CD000022D394D94BF25F8132025F81370DCF848
:100CE000005005F516754EF823500133122BECD148
:100CF000324B03931D68304B15F4805F08BFB6F983
:100D00004A71DF80CD348C421DD00B788BB98A7844
:100D1000CB789A420DDA72B1013A02EB820202EB11
:100D2000820202F561734A78234F04329BB227F89E
:100D300012300431E7E7013303EB830303EB830352
:100D400003F56173EFE72B074DD596F83E21062A90
:100D500043D8DFE812F03B008E009100BB00D500C5
:100D6000EF00EF0000080048DC09002058100020C8
:100D70007C100020F81A00200AE81C41E10900203C
:100D8000980500209C000020F01400200000C842BC
:100D9000E0090020CC0500209410002078090020F4
:100DA000B60B0020A41A0020C81A0020601A0020E8
:100DB000681A0020FB080020E00F0020DC0F002054
:100DC000501B0108441B00209009002045F2F052FE
:100DD000754B1A8002F008FD28B908200AF002FAC3
:100DE000724B734A1A60039B1A68724B12F4804F5D
:100DF00004D0122119706D496F48086042F2010059
:100E0000024202F4005140F03B851A786B4C6C4D65
:100E1000DFF8FCA1DFF8F491043A5A7003F034FED5
:100E2000684B18607379052B02BF674B4FF4C8728B
:100E30001A8005F08DFB654B4FF47A721A800023FF
:100E400023602B602368002B40F0E880232703F009
:100E50001BFE08F08BFF0A2003F03DFE013FF6D198
:100E600008F058FFDAF800302360D9F800302B6022
:100E7000E8E742F6F822ABE74B4B42F6F8221A803D
:100E8000534A0A23000190FBF3F00023A0F5B06061
:100E900042F823000133122BFAD1444A4D49116024
:100EA000444A4020137003F01DFD002895D0012313
:100EB000072790F90000484A8DE88800474B4021F9
:100EC00003F0B2FC003018BF012085E7364B42F634
:100ED000F8221A80354B424A1A60364B10221A709B
:100EE000402003F0FFFC00283FF477AF01230025EA
:100EF00090F900003B4A8DE828004FF4E133DEE72B
:100F0000294B42F6F8221A80284B374A1A60294B9F
:100F100008221A70402003F0E5FC00283FF45DAF82
:100F20000123002490F90000304A8DE818004FF4A6
:100F3000E133C4E71C4B2E4D2E4C2F48DFF8D4C0B4
:100F4000DFF8D4E02D4F42F6F8211980194B0C211F
:100F50001970062A4FF000032B70237003701AD00B
:100F60001B238CF8003005238EF800103B704FF4E3
:100F7000E1340E4B224A1A60402003F0B3FC0028F3
:100F80003FF42BAF0023012190F900001D4A8DE8AA
:100F90000A00234693E721238CF800308EF80010D6
:100FA0003A70194CE5E700BF6606002014000020E7
:100FB000DDA600087C0A0020B5A600082C1300203E
:100FC000281300209C050020181F002088090020FD
:100FD0001C1D002081A60008DDA80008A0860100D5
:100FE0006DA6000839A8000855A60008F1A700085A
:100FF000AA1C00208D1D00208C1D00208F1D0020AC
:1010000081A50008E1A6000890D00300241B002061
:10101000281B00208E1D0020A91C00200023DFF8C3
:101020009C93CD4F23602B604FF00F084FF0050AC3
:1010300003F02AFD08F09AFE0A2003F04CFDBAF1F5
:10104000010AF5D108F066FE2368D9F80020296866
:101050001A443B6822600B44B8F101082B60E5D1CB
:101060000F2192FBF1F22260BC4A93FBF1F32B605B
:10107000137843F008031370B94A137823F002037E
:101080001370039B1B6840F602021A420BD0B54B4B
:10109000B54A1A60B54B03221A70B54BA3F800800D
:1010A000B44BA3F80080039AB368B34C1360B34AFF
:1010B000B34DDFF80CA30123137022788DF8723042
:1010C000214662F07F024FF0020901F80C2B8DF8E7
:1010D00073906A69059342F480224FF480570DF1B2
:1010E000700B0491ADF8707059466A61504604F077
:1010F000DBFBCAF81870282003F0EDFCCAF8187062
:10110000484603F0E8FCAAF82870484603F0E3FCE0
:10111000CAF81870484603F0DEFC002002F01CFB01
:101120005A213A2002F0FAFA052003F0D4FC48468E
:1011300002F012FB032002F00FFB042002F00CFB74
:10114000052002F009FB062002F006FB059B18466D
:1011500003F0C1FC07F02EFF642003F0BCFC894BB8
:1011600089484FF080421A60884B894A1A60894B3F
:10117000894A1A60894A4FF49663538108F0C0F88F
:10118000874808F0BDF8DFF83CE2864B4CF250325D
:101190001A609EE80F000DF12C0C8CE80F000EF188
:1011A00010030FCB0DF13C0A8AE80F000EF120036B
:1011B0000FCB0DF14C090EF1300E89E80F009EE8BF
:1011C0000F008BE80F0099E80F00049F87E80F00DD
:1011D0009BE80F0004F11C0E8EE80F009AE80F0048
:1011E00004F12C0E8EE80F009CE80F0004F13C0E79
:1011F0008EE80F004FF4967003F06DFC00214FF461
:101200008C72694810F07AFBEB69DDF810A043F0AE
:101210000703EB61AB6943F4A523AB616B6943F44E
:10122000C0236B6104F1100104F1600E0F2710312F
:101230008E4540F0398173790E2B40F04E810123A9
:101240008DF86630594B1968B8F1040F00F04E81E3
:1012500008F1010301EBC30212F9062C022A40F047
:1012600043814FEAC8039A1C8A1800F041810B445D
:101270009B88003318BF01238DF86130039B1A68E7
:10128000C2F340038DF86230C2F380138DF86430EE
:10129000C2F340338DF85C30C2F3C0338DF85F3059
:1012A00012F4006307D096F83231A3F1020EDEF19A
:1012B000000343EB0E038DF86030C2F300438DF85A
:1012C0006530C2F3C003B6F8D4708DF85E30C2F357
:1012D0008043ADF86A708DF86330D704B6F8E0301B
:1012E000ADF8683002F0010002F0080144BFB6F822
:1012F000DC20ADF86A20B3F5FA7FC4BF0023ADF857
:101300006A3096F8823184F84C300023A4F84D30CE
:101310009DF866308DF85D00002B14BF022200227C
:1013200000B901B10132224B1F4E03EB8203D3F807
:1013300090309F1E0633049337F8023F4FF6FF723A
:10134000934240F0D7801B4BDFF87CE01A4F042219
:101350001A7000243AE000BF241B00206110002016
:10136000F81E0020141E0020A80B0020B00500204D
:10137000B2050020B4050020900700206C07002073
:1013800000100240FC140020971F0108F8140020F0
:10139000ABAAAA3FF414002026B4973EE00F002029
:1013A000951F01080C000020541B00201C1F00206A
:1013B000501B0108EE100020F01B0108281B002024
:1013C00000040048A01B0108AC060020E3190FCB65
:1013D00004EB0E061034402C86E80F00F6D1039B78
:1013E000C9481A68C94B1E68C94B02F480521C6870
:1013F0000023002A00F00A82B4F9041020F8131028
:1014000001330C2BF5D1022401268DF872608DF882
:1014100073406B69BF4F4FF0100843F48023ADF861
:10142000708059466B61384604F03EFAA7F8288070
:101430008DF872608DF873406B694FF090484FF0F3
:10144000800943F40033ADF8709059466B614FF05A
:10145000904004F029FAC8F818908DF872608DF861
:1014600073406B69ADF8704043F480236B6159465B
:10147000384604F019FA3C858DF872608DF8734097
:101480006B694FF4004743F40033ADF87070594670
:101490006B61404604F008FAC8F818701E2003F08B
:1014A0001AFB31B0BDE8F08F11F8063C11F8050CBD
:1014B0004FEAD30C03F0070251F8103C03EB8C0306
:1014C0009200D3F820C0904007FA02F22CEA020200
:1014D0001A621A6A10431862A9E603F0EF03082B98
:1014E0003FF4ADAE0023ABE69846ADE60023C3E67D
:1014F0001346C1E69DF862205FFA83F81B0A4AB1E1
:1015000004EB081283481169814203D1928A012AAF
:1015100000F07181022B00F06E81012B0AEB0810A4
:1015200040F03F819DF85D30002B00F064814FEA70
:101530000818794BE06504EB08090022FF211A70B6
:101540005A609A60DA601A6483F8441083F8451090
:1015500083F8462083F8472099F8193084F8502002
:101560008DF87230B9F81420D9F81000ADF8702059
:10157000022359468DF8733004F096F994F84C2004
:1015800099F81630D9F80C00012A0CBF032200226A
:10159000002B40F09C80036A23F0010303628369FF
:1015A000016A23F0F30343F0010321F00A0143EA47
:1015B000021341F0010183610162836923F00C038E
:1015C00083618369836104EB08090021012207F02C
:1015D000BBF8D9F80C2013889BB243F001031380A9
:1015E00099F817308DF870300022012358468DF895
:1015F00071308DF8722006928DF87330059301F0EA
:10160000D7FF99F81710059B069A1B290BD11921B2
:1016100058468DF870108DF871308DF872208DF865
:10162000733001F0C5FFA0443C4B2366D8F80C9002
:101630003B4B63660023A366484607F0D3F80628B1
:1016400000F3D98098F8162036490A23434303EB68
:10165000920346F823100433043146F8231091080E
:101660000222D9F80C308A4092B21A4303B203EB3B
:101670008303DB00C9F80C2003F120023244EFF3AE
:10168000128E502181F31288103333440421D3F891
:1016900000C0BCF1000F03D0C2F800C01A680432C9
:1016A000013903F10403F2D111605FFA8EFE8EF36B
:1016B0001188282303FB0060036A002B40F0F480AC
:1016C000D9F80C3023F001031B041B0CF0E0042BB1
:1016D0002AD1036A23F010031B041B0C03628369E5
:1016E000016A21F0A00123F47343090443F48073D9
:1016F000090C43EA023341F01001836101628369FE
:1017000023F440635CE700BFFE1E0020DC1A0020CB
:10171000D81A002000040048441100204554000855
:101720001D550008F0070020082B036A1ED123F482
:1017300080731B041B0C0362C369016A9BB223F014
:10174000F30343F001034FF2FF5E43EA021301EAA1
:101750000E0EC3614EF480730362C36923F00C0361
:101760001B041B0CC361C369C3612CE723F48053C2
:101770001B041B0C0362C369016A23F440731B053D
:1017800021F400511B0D490443F48073490C43EAD2
:10179000023341F48051C3610162C36923F44063A1
:1017A000DEE7032B27D19DF8633094F84E90DFF8E5
:1017B00044814BB100234FF6FF72082104F09EF8DC
:1017C0003D4B48F8290010E0BDF86820BDF86A30AC
:1017D000B2F5FA7F14DD3949B1FBF2F2242192B25D
:1017E00004F08CF8364B48F82900C36094F84E306A
:1017F000013384F84E30049BBB427FF49DADA2E5DB
:101800003049B1FBF2F2012192B2D7E7B6F90410E8
:10181000F4E52B7A43F002032B72FFF764B8002142
:10182000012B04913FF604A8274B9DF81C201A7049
:10183000FFF718B8254B42F210721A805A80244ADA
:101840005A60244A9A60244ADA60244A1A61244A77
:101850005A61FFF7FFB81A7804218154511CC9B2AC
:1018600005254554D11C0232D2B21970062181548B
:10187000FFF793B902321A7013224254FFF7BDB931
:10188000184844F62064048021B1082119701649D3
:1018900016480860D2077FF5B8AA0C221A70124ABF
:1018A00013491160FFF7B1BAD9F80C3043F00103C6
:1018B000C9F80C309FE700BF2D55000800512502E4
:1018C0004155000840420F00580500202C1B002005
:1018D000F79400082B950008ED940008299500085E
:1018E0004D9300086606002014000020D1A60008D1
:1018F000C5A60008A8110020A9490A682DE9F04FE3
:1019000002F59C43A74C20332360A74B8BB01D7876
:101910000591002D3AD1A54FDFF8A082DFF8CCA2C7
:1019200097F80090E9B249450E4680F2A480072955
:10193000D8BFD8F800303846D8BF595CDAF8003044
:101940009847032E1DDCD8F8003006F10F0B03EB8F
:101950008B0133F82B204B8898B1811A4FF47A70A1
:101960009B1A484390FBF3F040F2EE2300F57A70A7
:101970009842B8BF184640F6CA039842A8BF184616
:1019800080B204EB46060135B080C9E78849096892
:101990008A4201D9013D1D70864B00931A6812F4EA
:1019A000805F05D0844B1B68DD0701D40AF08CF8FA
:1019B000059B1968814B1A68937A002B00F03481DB
:1019C000013B7F48127B30F913301AB1C3F53B63FA
:1019D00008331BB2A3F57A73B3F57A7FA8BF4FF42F
:1019E0007A7323EAE37307EE903ADFED766AF8EE56
:1019F000E77A87EEA67A744ADFED747A67EE277A83
:101A0000FCEEE77A17EE903A1380009BDFF8E09146
:101A10001B6813F4807F00F054816D4B6D4D99422B
:101A200003D9AB78002B00F04F87AB78002B00F088
:101A30004881614F95F821603B6899F800B00297A2
:101A4000012E03F08063DFF894A1634F01930BF044
:101A5000040B14BF4FF003084FF0000895F8201056
:101A6000052900F22881DFE811F01B01930199019B
:101A7000BC01D401F1014F4B1A68584B029342F25A
:101A80000101186800900A40039206D094F82930AA
:101A900084F82830524B5A781A7094F828601EB196
:101AA0004F4B1E7886F001060F2384F82A30434BF3
:101AB00094F82BA01B6801930323BAFBF3F303EB09
:101AC0004303AAEB0303DBB25B000493009B454F87
:101AD000DFF8ECB003F51673002507F1BC0206939E
:101AE00007F172084D4542DA690086B137F91500F1
:101AF000019B9B8A80B29842C0F2CE86019BDB8A12
:101B0000984200F3C986069B42F8253003E0304630
:101B1000EEE73BF80100039B1BB92BF815000135DC
:101B2000E0E7314B062101FB053E049B2EF8030044
:101B300094F8743033B9BAF1020FEEDD4FF00103BF
:101B400084F874304FF0000128F815106B00002065
:101B50003EF8101033F808C001306144032823F820
:101B60000810F5D10BB293FBF0F080B2D5E794F8F2
:101B70002A300F2B174B3DD10F4A1268560139D42A
:101B8000029AD96812689A60521AC82A02D90122A8
:101B900083F8212094F82B30013384F82B30FBE6B6
:101BA00044100020D0080020EC1E00207C0A0020F9
:101BB000E81E0020DC0F002024150020681A0020F9
:101BC000E00F002000007A44380A002000C07F4463
:101BD000404B4C00A41A0020A01A0020441B0020F7
:101BE00011000020D4080020FC0800201400002070
:101BF000F81E0020B84AB94E012151701170029AA6
:101C000099681268DA60521A59688A4284BF0022C1
:101C100083F8212000254D45BCDAE8B209F024F80C
:101C200026F815000135F6E70098006800047FF5F6
:101C3000ECAED4F89000081A0028FFF6E6AE01F5E5
:101C40009C402030C4F89000A548D27A4579A54838
:101C5000A54E30F8150080B290FBF2F094F8942075
:101C6000013202F00F0284F89420224482F8950099
:101C700018461A46855D01302A44102812B2F9D15F
:101C800092FBF0F212B2002A03DB642A1346A8BFCB
:101C9000642307EE903ADFED956AF8EEE77AA8E65E
:101CA000BBF1000F68D0012E05D0052009F072FAB3
:101CB0008F4B02221A70B8F1000F02D0404602F09A
:101CC000A1FE8C4DB5F8DE0001F034FEAA460646B2
:101CD00018B904F025FC04F013FC99F800305B07F8
:101CE00008D5009B1B68DF0604D5834B1B78DD06F7
:101CF00040F1F68500239AF88C819AF88D11BAF894
:101D00004671BAF848E175481A4630F912509B08F6
:101D1000BD42C4BF63F07F03DBB201327545B8BF7B
:101D200043F04003042AF0D194F8B1209A4240F0E5
:101D3000C18094F8B220F92A02DC013284F8B22082
:101D40006E4F84F8B1303B786D4D002B40F0E98048
:101D50002B68D80740F1DC80002E40F0AD8099F868
:101D60000030DA0740F1DD805B0702D4012384F8FC
:101D7000B33009F05DFED4E0019B4FF4806023B1E5
:101D800009F022FA00232B6195E709F00DFAF9E733
:101D9000012E7FF463AE052100F09EBD012E04BF2D
:101DA000052185F82010BBF1000F0CD0D4F8A81045
:101DB000B1F90E0049490880488088803868408819
:101DC000C8804FF00208DAF8000069698142C0F06B
:101DD0007F85BBF1000F00F07B85012E3FF43EAE06
:101DE00069E799F8001041F0020189F8001009F044
:101DF0006BFEDAF80000E9690144A961042185F865
:101E000020104FF4806009F0CFF9052009F0B6F9F1
:101E100024E6012E14D1DAF80000A9698142BFF44A
:101E20004AAF364B197821B9029B1968CA073FF5AA
:101E300042AF99F8001021F0020189F80010AAE7DA
:101E4000DAF80020EB691344AB6134E73868DAF85C
:101E50000030C188642000FB01312961002185F830
:101E60002010E970CDE79AF88E317EB9002B00F092
:101E70003F85244B1A68D4F8AC309B1A002B80F2B3
:101E8000378509F021FE84F8B06033E73BB11D4A85
:101E900012684FF47A7101FB0323C4F8AC3094F854
:101EA000B030002B3FF426AF02F0A2FD002384F8EF
:101EB000B0301FE7002241E7D4F8B4300A2B30DC01
:101EC000114B1B885E072CD4104B1B784BBB04F0C6
:101ED00027FB04F015FB4CE711000020E00F002069
:101EE000181E0020281E0020650900200000C8429E
:101EF000171F0020800A0020611000201800002019
:101F000024150020441B0020EE1E0020161F002078
:101F100099F80030580704D594F82830002B40F089
:101F2000ED8494F8B230994E142B2ED13B78C3B186
:101F300094F8B1305F2B06D199F8003013F0040B00
:101F40006CD009F0C1FDB8F1000F0AD094F8B1309F
:101F50007D2B06D199F8003013F0040B64D009F002
:101F6000B3FD99F8003013F004020ED194F8B130AB
:101F7000572B5FD14FF47A73A4F8B830844B1B68A9
:101F800013F0080301D1834A1380009B1B68580794
:101F900025D594F8BA309BB199F8003059070FD580
:101FA0007D4BB3F90620BAF846319A4208DD2B681A
:101FB00013F0010301BF794A84F8BA30322111804D
:101FC0002B68DA0340F1A080754B1A782AB9754A5C
:101FD000127812B9714A3221118001221A703668C2
:101FE00000232B6006F17F0706F1CF084FF0010BAD
:101FF000B84500F098803A787B789A420CDA3946F6
:1020000017F8010C02F0D0FC30B117F8023C2A6836
:102010000BFA03F313432B600437E9E70B2002F0BC
:10202000F1FC84F8B2B08EE70B2002F0EBFC84F8F0
:10203000B2B096E700990968490740F167845A2BC6
:1020400040F06484574B197821B11A70564B012225
:102050001A709AE794F8BA3083F0010384F8BA3022
:102060001BB10C2002F0CEFC8FE70D20FAE75B2BB2
:1020700000F051845E2B40F05C84032000F04CBCE7
:10208000B8F1000F02D07E2B00F0608494F8B130DC
:10209000972B04D1454B4FF4C8721A8075E7A72BD4
:1020A00005D1434A137843F0040313706DE700220F
:1020B000BB2B099217D10223ADF826303368BDF847
:1020C0002410B3F85C200A44A3F85C20BDF8261065
:1020D000B3F85E200A44A3F85E2009F02BF9002330
:1020E00084F8B23051E7B72B02D14FF6FE73E3E725
:1020F000BE2B03D10223ADF82430DFE7BD2B7FF4E4
:1021000044AF4FF6FE73F6E7264A1378002B3FF4F0
:1021100066AF99F8003013F004037FF460AF1370DA
:102120000122214B5AE7234F06F1CD054FF00C0851
:1021300006F215164FF0010BB5423FD06A78AB7826
:102140009A4221DA691C287802F02EFCE0B1697904
:10215000EB78194A95F804C008FB01FE013B07EB38
:102160000E0003EB43031344426893420CD04360D8
:102170000023836094F8BB3007F80EC00BFA01F11E
:1021800023EA010184F8BB100635D5E7601A002068
:10219000DC090020280A0020E00F0020C21E0020D9
:1021A000E21E0020E31E0020E41E0020181F002075
:1021B000611000206C1A00205E1C0108C84AC94941
:1021C00094F82830D2F800800F68C74D019300269C
:1021D0000292042E00F0C0826968002962D00A7859
:1021E000002A5FD0A868381A00280BDB07F5FA70C0
:1021F000A860012000FA06FE94F8BB0020EA0E0059
:1022000084F8BB00019B002B4CD028784B7804301D
:10221000C0B2002B40F06982B44B33F910E0BAF839
:10222000440100F1C80CE64528DD91F802B094F8AD
:10223000BB103141CB0735D4BBF1000FCCBF02201E
:102240000120039202F004FC039A511E13293BD88B
:10225000DFE811F02B0042004F0061007A0082009D
:10226000E5005601BA01EB011A023A0061006D0067
:102270008200E5005601DC003C01B101C83886450A
:1022800004DA91F802B0CBF1000BD0E7012202FA98
:1022900006F194F8BB2022EA010284F8BB2007F57E
:1022A000FA72AA6001360C3593E798F8002093443F
:1022B000BBF1FA0FA8BF4FF0FA0B2BEAEB7B88F8C3
:1022C00000B0404602F054FB94F8BB100122B2402B
:1022D0000A4384F8BB20E5E798F801209344BBF15A
:1022E000640FA8BF4FF0640B2BEAEB7B88F801B0BA
:1022F000E7E798F803209344BBF1640FA8BF4FF0C1
:10230000640B2BEAEB7B7A4A88F803B011684046ED
:1023100002F0EEFAD8E798F8051059446429A8BFEE
:10232000642121EAE1710D2A88F80510CCD098F8D3
:1023300004209344BBF1640FA8BF4FF0640B2BEA59
:10234000EB7B88F804B0BFE798F8062093448BF342
:10235000080B88F806B0B7E76649096808780228CC
:102360003DD107EE90BAF8EEE76AB2EE047AC6EE17
:10237000877A91ED0A7A77EE877AF5EEC07AF1EEF8
:1023800010FA29D49FED5C7AF4EE477AF1EE10FA58
:10239000C8BFF0EE477A0F2AC1ED0A7A94D007EE53
:1023A00090BAF8EEE76AB2EE047AC6EE877A91ED5B
:1023B000097A77EE877AF5EEC07AF1EE10FA2BD42F
:1023C0009FED4D7AF4EE477AF1EE10FAC8BFF0EEC9
:1023D000477AC1ED097A77E7DFED487ADBE788785D
:1023E0005844C828A8BFC82020EAE0700F2A887087
:1023F0003FF46AAF4A789344BBF1C80FA8BF4FF0CF
:10240000C80B2BEAEB7B81F801B05DE7394A116814
:102410000A78022AC3D0EDE7DFED387AD9E73549EB
:102420000968087802283AD107EE90BA9FED327A0F
:10243000F8EEE76AC6EE877AD1ED0D6A77EEA67AF6
:10244000F5EEC07AF1EE10FA26D4F4EE477AF1EE0A
:1024500010FAC8BFF0EE477A102AC1ED0D7A3FF4AA
:1024600033AF07EE90BA9FED247AF8EEE76AC6EE36
:10247000877AD1ED0C6A77EEA67AF5EEC07AF1EEA6
:1024800010FA29D4F4EE477AF1EE10FAC8BFF0EE54
:10249000477AC1ED0C7A17E7DFED187ADCE7487B65
:1024A0005844C828A8BFC82020EAE070102A487302
:1024B0003FF40AAF0A7B9344BBF1C80FA8BF4FF0AB
:1024C000C80B2BEAEB7B81F80CB0FDE6094A1168DA
:1024D0000A78022AC5D0EDE7DFED087AD9E700BF18
:1024E0004C1A0020441B00206C1A0020E00F002032
:1024F000D40F0020D80F00200000C84200000000C8
:10250000C0490968087802283ED107EE90BA9FEDCD
:10251000BE7AF8EEE76AC6EE877A91ED107A77EE2A
:10252000877AF5EEC07AF1EE10FA2AD49FEDB77AE9
:10253000F4EE477AF1EE10FAC8BFF0EE477A112AAE
:10254000C1ED107A3FF4C0AE07EE90BA9FEDAE7ABF
:10255000F8EEE76AC6EE877A91ED0F7A77EE877A22
:10256000F5EEC07AF1EE10FA2BD49FEDA87AF4EED6
:10257000477AF1EE10FAC8BFF0EE477AC1ED0F7A54
:10258000A2E6DFEDA37ADAE7087E5844C828A8BFA0
:10259000C82020EAE070112A08763FF495AECA7D83
:1025A0009344BBF1C80FA8BF4FF0C80B2BEAEB7BDD
:1025B00081F817B088E6934A11680A78022AC3D0D6
:1025C000EDE7DFED937AD9E78E4A11680A78022A9F
:1025D0001FD107EE90BAF8EEE76AB2EE047AC6EEC3
:1025E000877A91ED0B7A77EE877AF5EEC07AF1EE85
:1025F00010FA0BD49FED857AF4EE477AF1EE10FADB
:10260000C8BFF0EE477AC1ED0B7A5DE6DFED807A68
:10261000F9E7CA789344BBF1C80FA8BF4FF0C80BC5
:102620002BEAEB7B81F803B04EE6764A11680A7814
:10263000022A1DD107EE90BA9FED747AF8EEE76A90
:10264000C6EE877AD1ED0E6A77EEA67AF5EEC07AFD
:10265000F1EE10FA09D4F4EE477AF1EE10FAC8BFA1
:10266000F0EE477AC1ED0E7A2EE6DFED697AF9E7F2
:102670008A7B9344BBF1C80FA8BF4FF0C80B2BEA6D
:10268000EB7B81F80EB01FE65E4A11680A78022AD9
:102690001FD107EE90BA9FED5C7AF8EEE76AC6EEBE
:1026A000877A91ED117A77EE877AF5EEC07AF1EEBE
:1026B00010FA0BD49FED557AF4EE477AF1EE10FA4A
:1026C000C8BFF0EE477AC1ED117AFDE5DFED507A33
:1026D000F9E74A7E9344BBF1C80FA8BF4FF0C80B7F
:1026E0002BEAEB7B81F819B0EEE5012B7FF4ECAD22
:1026F0000C2A7FF4E9AD474B897833F910B0464B8B
:1027000040F633008345A8BF8346BBF5617FB8BF61
:102710004FF4617B4FF4966090FBF1F01978ABF5C4
:10272000617B9BFBF0FB5FFA8BFB59453FF4CCAD23
:10273000BBF1030FD4BF59460221197002FB01A25D
:10274000029B02F22A521A6006F0F0FE0BF1010021
:10275000C0B202F07DF9B7E5304D314E2B6813F071
:10276000020F06D1009B1B68DF0506D52D4BDB78D9
:102770001BB13368980700F1ED80012008F014FDCB
:10278000012704E003F0CCFE012008F01DFD2A68BB
:10279000510732D58FB3012008F006FD224B1B886C
:1027A0009A0704D403F0BCFE022008F00DFD99F84E
:1027B00000305B0708D41C4B1B8803F044031BB19B
:1027C0001A4B1A881A4B1A80336813F00A0F40F01C
:1027D000C9802B681A054FF480705AD508F0F4FCB4
:1027E0009AF80530082B02D00E2B40F0C380402011
:1027F0000BB0BDE8F04F08F0D7BC022008F0D4FCC5
:10280000D5E700BFD80F002000007A440000C8427E
:1028100000000000E00F0020641A002024150020B2
:10282000DC090020A41A0020F01E0020280A002045
:10283000FA1E0020514B1B885F0706D4042008F0C5
:10284000C3FC4F4B1A884F4B1A802B689E061CD531
:102850004A4B1B88580602D4402008F0B5FC2B6870
:10286000590641BF464A1188474A118013F00803B0
:1028700008D094F8BC30002BABD1414B1A88424BA6
:102880001A80012384F8BC30A3E7402008F08CFCB8
:10289000E5E708F089FCA3E752F825300098834269
:1028A0003FF637A9E8B2079208F0DEF9032D079A40
:1028B0003FF731A994F82A100123AB4021EA030322
:1028C00084F82A30FFF727B90123AB70FFF7ADB8C2
:1028D00042F21071E961032185F82010FFF7BEB8BC
:1028E0002A4B1B78002B7FF4BEAA002E7FF4D7AAB8
:1028F000102002F087F80123FFF7D9BA11B9002E92
:102900007FF40FAB09F0E0F8FFF70BBB5D2B7FF412
:10291000AEAB012000E00220C7B27B1E8AF828354A
:1029200008F070FC06F04CFE384602F091F8FFF714
:102930002CBB562B01D108F0FDFC3B78002B3FF45B
:10294000A5AB94F8B1306F2B7FF49AAB09F070F817
:10295000FFF71BBB094B1B8813F001073FF412AFB5
:10296000002714E72B68DB063FF564AF042008F06E
:102970001BFC6AE70BB0BDE8F08F00BFF01E002023
:10298000280A0020FA1E0020600000201800002005
:1029900038B5044624200D4601F01AFF4D2001F001
:1029A00017FF002C094C14BF21203E2001F010FF1E
:1029B0002368002228469A7101F00AFF236893F8E1
:1029C0004900BDE8384001F003BF00BFF41E0020FD
:1029D00001460020DCE710B501F0F0FE044601F0EE
:1029E000EDFE04EB004010BD2DE9F84F4B282DED16
:1029F000048B00F0118500F2F080322800F0508541
:102A00006BD8222800F040842BD8032800F0CE8217
:102A100007D8012800F0AD82022800F0B78200201C
:102A2000C0E2042800F0C9820528F8D11A20FFF777
:102A3000CFFFC84D0024285D013401F0C9FE0B2CE6
:102A4000F9D1C54D0024285D013401F0C1FE082CE8
:102A5000F9D100240020013401F0BAFE072CF9D18D
:102A60009FE2282800F0BF8413D8242800F0B08407
:102A70002628D4D1B94C0620FFF7AAFFB4F8E80005
:102A800001F0B8FEB4F8EA0001F0B4FEB4F8EC00CE
:102A90004CE22A2800F0BA842C28C0D1AF4C0C207C
:102AA000FFF796FF94F83E0101F092FEB4F848015A
:102AB00001F0A0FEB4F8440101F09CFEB4F8460118
:102AC00001F098FE94F83F0101F082FEB4F84A014B
:102AD00001F090FEB4F84C0128E23D2800F0178385
:102AE00044D8382800F07A8433D8342800F0EF83B3
:102AF000362894D19A4D994C95F86400C0EBC000EB
:102B0000C0B2FFF765FF04F12006683594F998011B
:102B100000230C33EA1812F90C2C824240F0D584C1
:102B2000C0B201F055FEB4F89A0101F063FE94F8CA
:102B30009C0101F04DFE94F89D0101F049FE94F8CE
:102B40009F0101F045FE94F89E0101F041FE00F066
:102B5000BFBC3A2800F0D2823B287FF460AF01204E
:102B6000FFF736FF7F4B1B6818780CE2452800F012
:102B7000C18426D8402800F09A8442287FF44FAFC1
:102B8000764C1020FFF724FF607901F021FEA06849
:102B900001F039FE94F83E0101F01AFEB4F8E800A5
:102BA00001F028FEB4F8EA0001F024FEB4F8EC00CD
:102BB00001F020FEB4F82E0101F01CFEB4F8300143
:102BC000B4E1462800F0898449287FF428AF022028
:102BD000FFF7FEFE614B9889A8E1732800F0C383DC
:102BE00000F256816C2800F0518200F2D1806628F4
:102BF00000F0168200F295804D2800F0318465289F
:102C00007FF40DAF0B20FFF7E3FE574B544C1888B1
:102C100001F0F0FD554B1A68554B9A420CBF554BCD
:102C2000554B188880B201F0E5FD2068C0F3C00361
:102C3000C0F380029B0043EA4203C0F34002134307
:102C4000C0F3401243EAC20300F01000184301F041
:102C5000D1FD4A4B26791A88494B1968494B1B7894
:102C600002F00100C3F3800343EA4003C2F34000D3
:102C700043EA800302F008000343C2F3800043EA02
:102C80000013C2F3801043EA401301F040000343F5
:102C900001F08000034301F480700343C2F300108D
:102CA00043EA4023C2F3401043EA8023C2F30020EA
:102CB00043EAC02301F48050034301F4005003436E
:102CC00001F48040034301F40040034301F48030E9
:102CD000034301F40030034301F48020034301F473
:102CE0000020034301F480100343C2F3402043EA71
:102CF000405301F00071C2F380220B43002043EAED
:102D00008263053402460125B24280F06681115D7E
:102D100005FA01F119421CBF05FA02F1084301321C
:102D2000F2E7682800F0A68169287FF478AE164D96
:102D3000164E2878400000F0FE00FFF749FE002400
:102D40002B789C4280F02D8136F8140001F052FD62
:102D50000134F5E7B01F0108BC1F0108800A0020FC
:102D6000DC090020601A0020EE1E0020341A00202A
:102D700000540040181A00201A1A0020F01E0020EB
:102D800024150020F81E00207C0A0020E00F0020FF
:102D90006F2800F0C78130D86D2800F086816E283A
:102DA0007FF43DAE0720FFF713FEC54BC54C1888D6
:102DB000FF28A8BFFF20C0B201F00AFDA06D4FF6AA
:102DC000FF75A842A8BF284620EAE07080B201F053
:102DD00011FDB4F85C0001F00DFDBB4B93F83331ED
:102DE000002B00F09081236E0A205843A842A8BF10
:102DF000284620EAE07080B298E0702800F0BA819E
:102E000072287FF40CAEB04C1620FFF7E1FDB4F849
:102E1000440101F0EFFCB4F8D00001F0EBFCB4F891
:102E2000D20001F0E7FCB4F8D40001F0E3FCB4F800
:102E3000860101F0DFFC002001F0CAFC002001F057
:102E4000C7FC002001F0C4FC94F8330101F0C0FC81
:102E500094F8400101F0BCFC002001F0B9FC9B4B50
:102E60001B68B3F95A000A2390FBF3F080B201F01B
:102E7000C1FC94F8280101F0ABFC94F82C0101F09E
:102E8000A7FC94F82B0101F0A3FC94F82D017AE043
:102E9000A02800F08D8222D8772800F049820FD830
:102EA000742846D075287FF4BAAD2F20FFF790FD27
:102EB000874C14F8010F002873D001F089FCF8E763
:102EC0007B2800F026837C287FF4A9AD0320FFF740
:102ED0007FFD804B187801F08DFC7F4B44E6F02895
:102EE00000F059820AD8DD2800F01083DE287FF434
:102EF00096ADFFF770FDFFF76EFD52E0FE2800F083
:102F00003D82FF287FF48BAD744A6E4C11880023FC
:102F100023840122114266D101339BB25200092B56
:102F200092B2F7D10220FFF753FD208C01F062FC32
:102F300037E0644F00264FF0010ADFF8BC914FF0F4
:102F4000000B3B795B4540F3E981654B0C251BF891
:102F50000340002305FB03F202EB090012F80920ED
:102F6000A24200F0DC8201331C2BF3D10BF1010BE8
:102F7000E7E70320FFF72CFD002001F029FC0220E9
:102F800001F026FC002001F023FC0AE00520FFF7F9
:102F90001FFD544D0024285D013401F019FC052C5F
:102FA000F9D10120BDEC048BBDE8F88FFFF710FDCF
:102FB000022001F00DFC0020E2E70B20FFF708FDE6
:102FC000072001F017FC484D0024285D013401F072
:102FD000FFFB072CF9D10020A8E701F014FC3A4BC5
:102FE00093F82805CFE7013B072B05D8DFE803F06E
:102FF00007090B0E101214160123238492E70223F3
:10300000FBE74023F9E74FF48073F6E78023F4E70A
:103010002023F2E71023F0E70823EEE70423ECE790
:103020001220FFF7D5FC314B264C1B88B3F5806F7F
:10303000D4BF01260826002504F1220737F9150020
:1030400090FBF6F0013580B201F0D4FB032DF5D1F1
:10305000208D01F0CFFB608D01F0CCFBA08D244CC6
:1030600001F0C8FB208801F0C5FB608801F0C2FBBD
:10307000A0885BE71020FFF7ABFC1E4D0024285D05
:10308000013401F0A5FB102CF9D18AE70D4C062084
:10309000FFF79EFCB4F8460001F0ACFBB4F8480022
:1030A00001F0A8FBB4F84C0040E7064C0620FFF7FF
:1030B0008FFC206D01F0A7FBB4F8540036E700BF89
:1030C000C01E0020DC090020800A0020601A0020B9
:1030D000991C0108171F00209E000020EE1E0020F2
:1030E000E1090020A21F0108A81F01089C00002080
:1030F000501000200A0A0020381E01080420FFF7A3
:1031000067FC002061E1206E00F30F0073E6CA4CFB
:103110000220FFF75DFC94F88E0101F059FB94F852
:103120008D0130E7C54C0B20FFF752FC236818785F
:1031300001F04EFB2368587801F04AFB0025236814
:103140002B440135187901F043FB032DF7D1236897
:10315000D87901F03DFB2368987801F039FB2368AA
:10316000D87801F035FB2368588901F043FB2368C8
:10317000187A08E7B24C2120FFF72AFC23681B7855
:10318000022B4FF000056CD19FEDAE9ADFEDAE8AB9
:10319000B2EE048A236803EB850393ED090A20EE5F
:1031A000080A0CF095FE80F30800C0B201F010FB95
:1031B000236803EB850393ED0C0A20EE090A0CF05B
:1031C00087FE80F30800C0B201F002FB236803EB26
:1031D000850393ED0F0A20EE280A0CF079FE80F3A8
:1031E0000800C0B2013501F0F3FA032DD2D1072D4A
:1031F000236829D193ED120A20EE080A0CF068FE2C
:1032000080F30800C0B201F0E3FA236893ED130ADB
:1032100020EE080A0CF05CFE80F30800C0B201F05A
:10322000D7FA236893F8503000EE103AB8EE400A0F
:103230000CF04EFEFF28A8BFFF20C0B2013501F000
:10324000C7FA0B2DD3D1ACE62B44587801F0C0FA65
:1032500023682B44187B01F0BBFA23682B44D87DEC
:10326000ECE723682B44587801F0B2FA23682B442A
:10327000187B01F0ADFA23682B440135D87D01F0AD
:10328000A7FA0B2DEDD18CE65020FFF7A1FBDFF85C
:10329000B0816E4E00250C27D8F8004004EB850461
:1032A000013594F87D3007FB0363187A01F090FA3A
:1032B00094F87E0001F08CFA94F87F0001F088FA0F
:1032C00094F8800001F084FA142DE5D169E64820D5
:1032D000FFF77EFB5A4F002506263C6806FB054497
:1032E000013594F8D20001F073FA94F8CD0001F0A2
:1032F0006FFA94F8CE0001F06BFA94F8CF0001F069
:1033000067FA94F8D00001F063FA94F8D10001F064
:103310005FFA0C2DE1D144E6464427E6BAF1000FEE
:103320003FF43FAEF0B2FFF753FB4FF0000A04E664
:10333000474C464D2079FFF74BFB0026671D4FF0A9
:103340000C0823799E42BFF42CAEF05D002308FBED
:1033500003F25119525D824200F0F48001331C2BBC
:10336000F5D10136EDE70820FFF732FB0124E0B28A
:10337000013401F02DFA092CF9D112E60820FFF7EB
:1033800027FB002001F036FA002001F033FA00207C
:1033900001F030FA1FE62A4C0420FFF719FB2368DE
:1033A000B3F85E0001F026FA2368B3F85C00BDE5CF
:1033B0000C20FFF70DFB274B186801F024FA264B71
:1033C000186801F020FA254B186801F01CFAE8E5AE
:1033D0000420FFF7FDFA184B9868F6E70420FFF782
:1033E000F7FA154C45E5144C0720FFF7F1FAB4F84D
:1033F0002E0101F0FFF9B4F8300101F0FBF994F867
:10340000320101F0E5F9B4F834018FE50120FFF74E
:10341000DFFA094B5879B6E5074C0420FFF7D8FAD4
:1034200094F8840101F0D4F994F8850101F0D0F901
:10343000B4F886017AE500BF800A00204C1A00200B
:10344000601A00200000C84200007A44381E0108BB
:10345000DC090020ACF7FF1FB0F7FF1FB4F7FF1F18
:103460003A4D3B4C287800EB4000C0B2FFF7B0FA71
:1034700000262B789E4204F10204BFF492AD14F8AA
:10348000020C01F0A5F914F8010C00EB800000EB30
:10349000800000F2EE2080B201F0ACF90136E8E7DE
:1034A0000120FFF795FA2B4B93F840016BE50820BC
:1034B000FFF78EFA274D00246319013493F8360183
:1034C00001F086F9082CF7D16BE5302B7FF421ABA6
:1034D0000834A6427FF41AAB63E50D20FFF778FAB3
:1034E000002001F075F9002001F08DF9002001F0B5
:1034F0008AF906E61320FFF76BFA174D0024285DC2
:10350000013401F065F90B2CF9D1EFE701F056F920
:1035100047E50220FFF75CFA104B188806E545687E
:10352000284608F00DFC8046BAF1000F7FF4F4AE97
:103530002C46631B98457FF719AD14F8010B01F079
:1035400047F9F6E7087A01F043F90AE77C0A002018
:10355000CE0B0020800A0020B01F0108A000002030
:10356000104A40F2E933118989070AD50E4A0D49FC
:10357000107040F2E9330889C0070DD51078C0B249
:103580007047013B9BB2002BEDD1084A13880133F1
:103590009BB21380FF207047013B9BB2002BEAD106
:1035A000F3E700BF003800400C380040740A0020E8
:1035B0000C4B10B5DB6802780B48DB43C3F30223E6
:1035C0000121C3F1040301FA03F384181B01DBB2E8
:1035D00084F80033530902F01F0201FA02F240F8A6
:1035E000232010BD00ED00E000E100E0084B4FF4A7
:1035F0007A72594301F5FA714FF4FA63B1FBF3F3B0
:10360000B1FBF2F102FB0030B0FBF1F0704700BFFC
:10361000002F3A00F0B54FF0FF33CF08136001F0F0
:1036200007014FEAC70E3D460026052D00D806B11A
:10363000F0BD445DAF4203BF0C41E4B20B463346DC
:1036400014F0010F06D073441360012601350EF10A
:10365000080EEAE70133082B4FEA5404F0D1F5E7EE
:103660002DE9F04F87B00DF11808109D48F80C5D5A
:10367000294F1C4681468A46934600260123119A0B
:10368000964221D10026129B1D60CEB921464846A4
:1036900000F06EFF064698B904AD2B460622B02115
:1036A00099F85C0105F07CFB002808BF6FF0130659
:1036B0000023E15CEA5C91422AD10133062BF8D168
:1036C000304607B0BDE8F08F424629465846019380
:1036D000FFF7A0FF039A531C17D002F1B401890928
:1036E00057F82110003118BF012151450DD1D108E3
:1036F000019B02F0070005299FBF03FA00F5605CFB
:1037000028436054551C0136B9E76FF03106BAE71B
:103710006FF03106D4E700BFCC1C0108F8B50D4CA2
:1037200020250746258532200E4601F0C9F947F0CD
:103730008000FFF715FF322001F0C2F93046FFF795
:103740000FFF322001F0BCF9A561C82001F0B8F9E3
:103750000120F8BD000400481F4B202210B51A8537
:103760000446322001F0ACF904F07F00FFF7F8FEC8
:10377000322001F0A5F9194A4FF6FF7193894FF4F1
:103780007A73148914F002040CD0154A1348FF21EF
:1037900011704FF6FF71048914F0010416D01478EB
:1037A000E4B208E0013B9BB28B42EAD10D4A138898
:1037B00001339BB21380322001F082F9064B2022A4
:1037C0009A61C82001F07CF9204610BD013B9BB2F4
:1037D0008B42E0D1EAE700BF000400480038004017
:1037E0000C380040740A002007B51B4B03F1080297
:1037F0005A6093F84A2122B3012A09D1032183F8A0
:103800005C15072183F85E2583F85D150C221A727A
:10381000124B134A1A60402001F064F870B1012283
:10382000002390F9000040218DE80C004FF4E133B3
:103830000C4A00F0F9FF003018BF012003B05DF81A
:1038400004FB022183F85C15032183F85E2583F8CD
:103850005D150722DBE700BF740A0020140000207A
:1038600029A60008A9A700080D4B03F1DC02C3F844
:103870006025C3F8641500F15003984207D0027820
:103880001AB98178C278914207DB0430F5E700234A
:10389000044A83F00103137170470123F8E700BF66
:1038A000740A00201400002070B522220021124862
:1038B000124E0EF023F80022114B05210124104670
:1038C000042A03F108030CD0955D03F8085C03F8A3
:1038D000041C03F8034C03F8010C03F8021C01322A
:1038E000EEE7084B0122A3F8A6210222A3F8AE219D
:1038F000522283F8A22170BD160C0020DC1C0108A6
:10390000180C0020740A002010B507F0A9FA4FF433
:103910003024012806D10CB9052010BD07F0A0FA0B
:10392000013CF6E7002C08BF052010BD0021012056
:10393000FFF72EB80B4AD2F8683513F4805FB2F95E
:1039400072350AD0B2F85021111A8B4208DD1044AA
:103950008342B4BF002001207047B2F85201F7E75C
:1039600001207047740A0020164B1946002241F8C6
:103970000C2F4A608A6019461A6041F8182F5A6065
:103980009A604A608A601946303393ED000A41F824
:10399000242FB4EE400AF1EE10FA4A608A6006D68F
:1039A00093ED021AB4EE411AF1EE10FA07D79FED2B
:1039B000061AF0EE410AB0EE410A03F059BED3ED0B
:1039C000010AFAE708100020000000002DE9F0418C
:1039D000624CD4F8D035D4F8D4259A1A002AC0F213
:1039E000848003F5C332A032C4F8D83504F2DC5029
:1039F000D4F8E835C4F8D425984704F2DC5194F89B
:103A0000EC25084604F0FEFC94F8ED2512F0040FB6
:103A100004F2DC501CD0D4F8D435C4F8F0350023BF
:103A200084F8F43504F586759E4604F2F65704F2E0
:103A3000FC5630F9131027F8131026F81310013331
:103A4000032B25F802EFF4D122F0040284F8ED25CF
:103A5000D4F8F025DAB1D4F8D43541499B1A414A5B
:103A6000934201F106064FF0000340D830F91320CD
:103A700031F913705D009742775FC8BF21F81320BA
:103A8000974203F10103B8BF7253032BEED194F8B0
:103A9000083653B3B4F8DE05B4F81021B4F8E035B5
:103AA000B4F80E11801AB4F8162112FB00F210B20D
:103AB000B4F812219A1AB4F8183113FB02F3B4F8CF
:103AC000DC25511AB4F8142112FB01F21BB20A21B1
:103AD00012B293FBF1F392FBF1F2A4F8E035A4F8F3
:103AE000DC2590FBF1F2A4F8DE25BDE8F08101F1C0
:103AF0000C07C4F8F035A1F2EA4C4FF00208384642
:103B000031F913E036F913200EEB0205A2EB0E0299
:103B100002EB820227F8132095FBF8F50133032B03
:103B20002CF8025FECD1B4F90426B4F902360E4E3B
:103B30001344B4F906260A21134459430022B51848
:103B4000835E0232062A03EB430391FBF3F3A5F8ED
:103B50000831F4D107F0EEFB99E700BF740A0020AA
:103B60006A1000207FC3C901800A002013B51446E3
:103B700001AB042290F85C0105F012F9019B0028CA
:103B80001BBA0CBF6FF013000020236002B010BD01
:103B900013B5144601AB022290F85C0105F000F960
:103BA0009DF804209DF80530002843EA02230CBF4D
:103BB0006FF013000020238002B010BD08B513463B
:103BC00090F85C01012205F0EBF800280CBF6FF0C3
:103BD0001300002008BDF7B590F85C6115461C463F
:103BE00001220DF1070330460F4605F0D9F868B100
:103BF0009DF807202A402243394630468DF8072099
:103C000005F0CAF910B1002003B0F0BD6FF0130049
:103C1000FAE707B502AB8DF80520120A03F8042D68
:103C200090F85C01022205F040F900280CBF6FF00B
:103C30001300002003B05DF804FB08B590F85C01A8
:103C400005F0AAF900280CBF6FF01300002008BD92
:103C50002DE9F3474FF0000A88461646FF2101225E
:103C6000054699469DF828708DF807A0FFF7E5FFF7
:103C70005246044651462846FFF7DFFF52460443AA
:103C8000FF212846FFF7D9FF64B2044364B2B9F1BB
:103C9000000F06D04246CB212846FFF78FFF044392
:103CA00064B23FB10DF10702EE212846FFF786FF0F
:103CB000044364B20122FF212846FFF7BEFF012220
:103CC000044300212846FFF7B8FF64B204430022F2
:103CD000FF212846FFF7B1FF64B29DF8073020436B
:103CE00023F0100340B2337002B0BDE8F08773B523
:103CF0000646002501220B213046FFF79EFF0022D9
:103D000004460B213046FFF798FF0DF107020443EC
:103D100013213046FFF752FF9DF8073064B220436D
:103D200001355B0740B2EDB205D0032D08D0002865
:103D3000E0D002B070BD032D08BF6FF00B00F8E7B4
:103D40006FF00B00F5E7F0B54FF4FA6385B0002291
:103D50008DE80C0044F61F63994206460F4604D8CE
:103D60006FF00305284605B0F0BD02A900F00EFC77
:103D700005460028F6D19DF80830A7F636342BB951
:103D80009DF8093013B99DF80A30FBB101AA022150
:103D9000304606F048F9A8BB9DF808302BB1019BCE
:103DA00003F24E239C42DBD9E41A9DF80A3033B962
:103DB0009DF8093053B1019B03F5257303E0019B86
:103DC00003F2B2235B00A342CAD2E41A9DF80B307F
:103DD0005BB16A460321304606F025F9009B03F5E6
:103DE0002573A342BCD268B9E41A9DF80C30002BAD
:103DF000B8D0A4F226220421304606F08FF877616D
:103E00000546AFE70546ADE737B504461546052933
:103E10002CD8DFE801F0030717191B1B436B2B603D
:103E2000002021E00DF106024421FFF7B1FED8B9D0
:103E3000BDF8062053029AB12B60A363012384F8D6
:103E4000293011E0C36BEAE7036CE8E70DF10602E5
:103E50006421FFF79DFE38B9BDF806305B02DEE74E
:103E6000A36B2B6084F8290003B030BD6FF0030012
:103E7000FAE72DE9F04F9FB090F830310C91C02255
:103E8000012104460593FFF7D8FE0546002840F0BF
:103E9000E9822074012280212046FFF7CEFE012214
:103EA000FF212046FFF7C9FE2A4629462046FFF794
:103EB000C4FE94F83A2191212046FFF7BEFE294620
:103EC00001222046FFF7B9FE2A46FF212046FFF7D0
:103ED000B4FE2A4680212046FFF7AFFE2946012284
:103EE0002046FFF7AAFE01238DF85C300546002826
:103EF00040F0B882074644F620689DF85C30DB0746
:103F000007F101070ED5002D40F00E83474502D181
:103F10006FF00605A6E2294617AA2046FFF74EFED7
:103F20000546EAE74745F3D0002D40F09B82204646
:103F300006F053F90546002840F09482032384F8E4
:103F400032310C2214AB142194F85C0104F028FFE8
:103F5000002800F0C1829DF85A209DF85B30B4F82B
:103F6000520194F8311103EB02231FFA83FB9DF8F1
:103F700056209DF8573003EB02239BB25B029DF85D
:103F8000582000939DF8593003EB02239BB25B024B
:103F90009DF8522006939DF8533003EB02239DF8C1
:103FA00050209BB2B0F57A7F02934FEAE2020ED026
:103FB000257F0BFB00F04FF47A7300F5FA7090FB4D
:103FC000F3F0236A002D40F094801FFA80FB002953
:103FD00000F099804FEA8B13DBB209930023ADF810
:103FE0004630D3B2049303F00F0301934FEA9B0BC7
:103FF000019A4FF2A103D34003F001030B9394F80D
:1040000028300393002B00F0AC81257F236A25B173
:10401000029A03FB02F580352D0A94F8E020009BFC
:10402000D4F8DC7008922B4411464FF47A78384665
:1040300008FB03FA0A93FFF7D9FAD4F8E43094F8AE
:10404000E810079381461846FFF7D0FA089A0A9BB2
:104050000AF5004A082A4FEA1A4603F180020CBF0B
:1040600002210321C04B002E63D1C4F840311F460A
:1040700012AA00212046FFF7C7FE129BB6B2002B02
:1040800000F06D81BB422CBF00270127002840F0C3
:10409000108294F82A90B9F1000F00F0718113AAF0
:1040A00002212046FFF7B0FE88B90122FF212046F9
:1040B000FFF7C3FD58B90DF14602B6212046FFF7C0
:1040C00067FD20B90246FF212046FFF7B6FDBDF887
:1040D00046506B02139DC4F848311DB1AB4294BFEA
:1040E00000250125002800F04C814FF00008C24651
:1040F00065E1029D9BB26B43009D1B129D420CD15A
:10410000A1B948F6E02BD2B20023049202F00F02CC
:10411000ADF84630019209936AE7009D80B268438A
:10412000EB1AB0FBF3F31FFA83FB50E742F2B82B14
:1041300050E781444FEAC92901FB09F140F2776059
:104140004FEA122E01F5FA71B1FBF8F1414301F586
:10415000FA710F93B1FBF8F3089303FB0EFE069B75
:10416000DFF818920E9108FB03F000EA09000EF147
:10417000800EB0FBF6F67D480D925FEA1E2E08BF5A
:104180004FF0010E864228BF06464FF4167000FB22
:1041900006F30C2000FB0EF00A9306F009F8460027
:1041A00008FB05F0B0F5481F0AEA090A28BF4FF4DA
:1041B0004810AAEB400000F5FA700AF5FA7AB0FB55
:1041C000F8F0BAFBF8F80002B0FBF8F868480A9B70
:1041D0004FEA0828C8F5803841F25C2500FB0BF057
:1041E000B0FBF5F000FB08F000F50040000C00F516
:1041F000803040084043800B4FF4487808FB00F8BB
:1042000008F5004803F500454FEA184808FB08F890
:104210002D0C05FB058005F0CBFF079B00041F4418
:104220004FF0640E3230B0FBFEF040F6B53EB0FB0E
:10423000F6F641F288304FF47A790EFB060607F560
:10424000FA7742F210704FF4FA6EB6FBF0F6B7FB55
:10425000FEFEB6F5704F0EF5C81EB7FBF9F7BEFBB4
:10426000F7F028BF4FF4704605F0A2FF000200F5FA
:10427000FA70B0FBF9F0404306FB060005F098FF2A
:104280000F9B0E9909FB00F79F4228BF1F46B4F809
:104290005401D4F85831C4F8407103FB00F909F116
:1042A0008009009B4FEA192909FB00F9002B54D023
:1042B0000D9A304B03EA8223009A03EB5203B3FBBF
:1042C000F2F303EB43035B4303F500431B0C0620AF
:1042D0000335B5FBF0F5C5EBC505B5F5803F37BF38
:1042E0000A9A254A0332B2FBF0F23FBFC2EBC20288
:1042F00002F50042120C52434FF4FA6509F1200016
:10430000B1FBF5F1884442440899B2FBF1F280090F
:104310009203FE217F32B2FBF1F203FB02F805F0BB
:1043200047FF4FF47A7A08F5FA78B8FBFAF84FEAC3
:10433000081808F5FA780646B8FBFAFABAF1000F41
:1043400004D0B8FBF5F5A944B9FBFAFA504605F0DC
:104350002FFF864228BF06468AE6009BB7E71F4626
:1043600094E6039F95E600BFAE878F0266666600FF
:104370009A9906000000FCFF0000F0FF0000FFFF1C
:104380004D4694F82B80B8F1000F74D0029B002B9F
:104390006CD0009B4FEA032A029BBAFBF3FA17AAE0
:1043A00003212046FFF730FD179B002B61D05345BA
:1043B00094BF4FF0000A4FF0010A00285CD000269D
:1043C000B646039B002B00F0838007F00107019A9B
:1043D00094F8293084F82E70042A7BD0B3FA83F342
:1043E0005B09B9F1000F08BF0125B8F1000F08BF44
:1043F0004FF0010A05F001050AF0010A84F8305077
:1044000084F82F3084F831A004F150050FCD17AF98
:104410000FC795E80700002387E807001893009B63
:104420001A93069B1B93BDF80830ADF870309DF8C9
:104430002430ADF866608DF874E0ADF864B08DF8A6
:1044400073300DF15C0EBEE80F0004F150060FC68C
:1044500097E8070085E807002046FFF748FC054677
:1044600000283CD028461FB0BDE8F08FDDF808A03A
:1044700095E79A46A1E7C2460B9B03BB019B013B14
:10448000022B1FD9019B062B53D0092B51D0049B23
:1044900003F00D03082B18D0012D16D0019B042B1F
:1044A00060D0BAF1010F50D0012F51D0BA463D462D
:1044B00085E74FF00008C146C24645467FE74FF00A
:1044C000FF0E7EE74FF0050E7BE74FF0030E78E717
:1044D00001277CE7012384E76FF01305C2E701227F
:1044E000FF212046FFF7A9FB05460028BAD10C9A08
:1044F000B6212046FFF74CFB05460028B2D1024604
:10450000FF212046FFF799FB05460028AAD1059A0E
:1045100001212046FFF791FB05460028A2D19DF816
:10452000143084F830319DE7474508BF6FF0060529
:1045300098E74FF0040E039B002B7FF446AF012257
:1045400094F8293084F82E2048E74FF0020EF2E765
:104550005546BE46EFE7012384F82E30039D4FF009
:10456000020E3EE7039B002BF5D04FF0020E2CE726
:1045700008B506220B4690F85C01B02104F095FCCA
:1045800000280CBF6FF01300002008BD13B502AA6D
:1045900000230C4602F8013D0121FFF70FFB78B91B
:1045A0009DF80730C3F300122270C3F3C002A2705B
:1045B000C3F380026270C3F38012DB09E2702371DF
:1045C00002B010BD2DE9F04786B0037C0B700C469D
:1045D00003AAF8210546FFF7DBFA064628BB04AA22
:1045E00004212846FFF7C2FA0646F0B9BDF80C20B0
:1045F0001AB1049BB3FBF2F3A360A368AB61002381
:10460000237304AA20212846FFF7C2FA064660B9A0
:10461000BDF810306BB92A6A22612B7704AA2821D1
:104620002846FFF7B5FA064640B1304606B0BDE869
:10463000F087DB0023612B620123EEE7BDF8103029
:10464000C3F30B03B3F5006F4FF0FA0226BFA3F5D7
:10465000805313FB02F35343636104F1240805F113
:10466000280A04F1180900274246B9B22846FFF784
:10467000CBFB06460028D8D101371AF8013B09F8D0
:10468000013B062F08F10408EED104AA01212846B7
:10469000FFF794FA06460028C7D19DF8103085F838
:1046A00030311B064ABF012384F83C0084F83C30BB
:1046B00094F83C3085F84C304FF4FA6302930023B1
:1046C000039340F63633636004A92846FFF75EFF84
:1046D00006460028A9D19DF810302BB99DF811305D
:1046E00013B99DF81230CBB102AA0221284605F079
:1046F0009AFC00283ED19DF810302BB1029B03F2AA
:104700004E226368134463609DF81230DBB1029B54
:1047100003F2B222636803EB420363609DF8133037
:104720005BB103AA0321284605F07DFC039B03F53A
:104730002572636813446360E0B99DF8143063B96F
:1047400063686B6171E79DF81130002BE6D0029B26
:1047500003F5257263681344DFE701AA04212846A4
:1047600005F061FC019B03F2262263681344636039
:104770000028E5D0064658E738B504460D4601F056
:104780007F0204308A21FFF758FA84F8605138BD5F
:10479000044A536823B192F90020824200D118479D
:1047A000704700BF8C100020034B1B68DA79511C46
:1047B000D9711344187A7047F41E002010B5FFF722
:1047C000F3FF84B2FFF7F0FF04EB002080B210BDCE
:1047D000064B10B501460446986806F0FBFB044BF7
:1047E0001B689A7954409C7110BD00BF8C1000204A
:1047F000F41E002010B50446C0B2FFF7E9FF200AFE
:10480000BDE81040E4E710B5044680B2FFF7F2FFC0
:10481000200CBDE81040EDE7024B0146986806F019
:10482000D9BB00BF8C1000202DE9F34188469DF8CC
:1048300024E0184E11461A469DF8203005460C24F7
:104840000020042807460AD0013004FB006C1CF944
:104850000CCCAC45F5D104FB0764208908B10020DD
:1048600002E025B1012D11D002B0BDE8F0810A4867
:10487000CDF800E004F008F80028F5D00C2303FB85
:1048800007660571A6F808807060EDE7CDF800E0D6
:104890000248EFE7440A002000380140004400408D
:1048A00070B50E490E4A0B7B12680025032B05DDFF
:1048B00005B10B73002070BD2346F7E702EBC3067A
:1048C0005C1CB6883042E4B24FF00105F4D00C73A2
:1048D0000820022110FB0310104470BD8C10002032
:1048E0001C1F0020014B00221A73D9E78C100020F6
:1048F0002DE9F0411D4D00240A274FF47A76827885
:104900001FFA82FEA4EB0E031BB2002B2ADDC2F1BC
:104910006402D2B290F8038003FB03FC08FB0CFC9A
:10492000C8F164080EEB8E0E12FB02F29CFBF2F251
:104930004244534393FBF7F303EB4E031BB26B80EC
:104940000A88B1F802E00A34AEEB020EA4B203FB0F
:104950000EF3782C93FBF6F3134425F8023FCED1E7
:10496000BDE8F08108BF0122D4E700BF9810002005
:1049700030B50C4C002340F6C415072B10D003FBB8
:1049800003F2A2F1190142784A4302F6C4120178F7
:104990005A434A4392FBF5F224F813200133ECE723
:1049A00030BD00BFB21000200430104B10B533F9F9
:1049B00010200C7840F633039A42A8BF1A46B2F58D
:1049C000617F4FF0190340F28330B8BF4FF461723A
:1049D00013FB0404944207DA497813FB0100904268
:1049E000B4BF0020012010BD002010BDE00F00204A
:1049F000034B002283F834209A639A871A64704725
:104A00008C10002070B408B970BCF1E70E4A002386
:104A10000C25114605FB03F4A65C864209D10B4B1D
:104A2000186C50B1224455784278954205DB70BC31
:104A300070470133102BEDD1F9E7002221441964AE
:104A40009A879A63F3E700BFE01C01088C100020EE
:104A500040000C4A142870B4A8BF1420002302F1AF
:104A60004401022614255E540233CC18984204F8FF
:104A7000015CF8DC1344FF2283F844200F2070BC53
:104A8000C0E700BF8C10002010B50A490A480A6828
:104A9000846800BF0B689A42F9D1084BD96D4FF476
:104AA0007A7000FB01F31B1BB3FBF1F300FB023038
:104AB00010BD00BF441B002010E000E08C1000205F
:104AC00038B50446FFF7E0FF0546FFF7DDFF401B62
:104AD000A042FAD338BD10B5044604B910BD4FF456
:104AE0007A70FFF7EDFF013CF7E72DE987482D4C81
:104AF00006460B27013FFCD04FF01E0B05254FF05B
:104B0000020806F0400906F0200A00E00025B9F18D
:104B1000000F04D0A38A9BB283F48043A382BAF12E
:104B2000000F04D0A38A9BB283F40043A38216F043
:104B300002021FBFA38A9BB283F40053A38258468C
:104B40000192FFF7C8FF019AB9F1000F04D0A38AC0
:104B50009BB283F48043A382BAF1000F04D0A38AEE
:104B60009BB283F40043A38222B1A38A9BB283F455
:104B70000053A3825846FFF7AEFF7DB1013DC6D179
:104B80004FF4FA70FFF7A7FF4FF0960BB8F1000F44
:104B9000BCD14FF47A70FFF79EFFABE708F1FF3806
:104BA000F4E700BF00080048024A136801331360AD
:104BB000704700BF441B00200920E9E52820E7E5F5
:104BC00006EE901AB8EEE66ADFED106A104B9FED24
:104BD000117AB3F8603026EE266AF7EE005AC5EE79
:104BE000866A07EE903AF8EE677A67EE877A90ED7C
:104BF000007A76EEA76A30EE470A87EEA66AA6EE3E
:104C0000007AB0EE470A80ED007A7047DB0FC940AA
:104C10008C100020BD3786352DE9F74F244D254EE9
:104C2000254F002495F86280E0B240450ADA56F834
:104C300020302BB10B2803DCDB6837F810109847C5
:104C40000134EFE71D4B1B685B032DD50025194F81
:104C5000DFF86CB029464FF0500A4FF028092A4679
:104C6000EEB2B04520DD57F826305C688C4214D097
:104C70002046019203F0B6FDEFF312838AF3128807
:104C8000616A09FB00B001314162616941F00101D3
:104C90006161DBB283F31188019A57F826301B68F3
:104CA00001351A602146DBE703B0BDE8F08F00BF95
:104CB0008C100020A81100200A0A0020DC0F002020
:104CC000541B00202DE9F04FF34BF44CD3F8009027
:104CD000D4F868A0F24DDFF80C84F24FF24E2DEDBF
:104CE0000A8BD14583B0B0EE40BADFEDF08ADFED3C
:104CF000F09A9FEDF09A9FEDF0AA00F01483EF4B2D
:104D0000C4F868901A780193DFF8DCB3002A4ED11A
:104D1000BBF90230D5ED085AD5ED060A07EE903AF8
:104D2000BBF9043000EE103AB8EEC07AF8EEE77A3C
:104D300095ED070ABBF9003065EE876AB7EE006AA9
:104D4000E7EE806A20EE470AA0EEE06AA7EEA50A29
:104D500060EEE60A06EE903AF8EEE66AB1EE400A38
:104D6000E6EE260A0BF002FADFEDD57AB4EEE70A9A
:104D7000F1EE10FAB0EE401A00F1B182DFEDD17A17
:104D8000B4EE670AF1EE10FAC8BFB0EE671ACE4A69
:104D9000D2ED010A92ED000A02F06AFC019BC8ED17
:104DA000008A0122C8ED018AC8ED028A1A70BBF997
:104DB0000030D5ED01AAD5ED006A07EE103ABBF937
:104DC000023008EE103AB8EEC88AB8EEC77ABBF9DE
:104DD000043068EE2AAA07EE903AE7EE26AAF8EE2B
:104DE000E77AD5ED026AE7EEA6AAD5ED046AC4ED2E
:104DF0001BAA28EE268AD5ED036AA7EE268A95ED32
:104E0000057AA7EE878A28EE08CA84ED1C8AB0EEE0
:104E10004C0AAAEEAA0A0BF027FACAEE80BAB0EE44
:104E20004C0AABEEAB0A0BF01FFADFEDA87AB0EE3E
:104E3000EB7AB4EE677AF1EE10FA09DCC8EE00AA5C
:104E4000B0EEEA7AB4EE677AF1EE10FA40F36882D7
:104E5000DFED96AA97ED010A97ED007AD7ED027A79
:104E6000D5ED08BA20EE000AA7EE070AA7EEA70ABA
:104E70000BF0FAF9D5ED097AF4EEE97AF1EE10FAD1
:104E8000B4EEC90A48BFC5ED099AF1EE10FAB0EECA
:104E900040CA00F12782DFED957AB4EEE70AF1EE21
:104EA00010FA00F32282C0EE097A6BEEAABA95EDF1
:104EB000098A94ED1E0A6BEEA77A20EE000A27EE0F
:104EC000888AD4ED1D7AA7EEA70A0BF0CDF9F1EE92
:104ED000007AB4EEE70AF1EE10FA9DBFF1EE027A25
:104EE00077EEC07A9FED7A0ADFED7A7A336898BF61
:104EF00067EE807AD90768EE277A58BFB2EE007A5B
:104F0000C8ED027A58BF67EE877AA9EB0A0358BF4B
:104F1000C8ED027A07EE903A9FED6F7AF8EE677A65
:104F200067EE877AB0EE007AF4EEC77AF1EE10FA07
:104F300005D5B4EECACAF1EE10FA00F10982D4ED3B
:104F4000207AB4F88430F0EEEAAA7AEEA7AA013308
:104F5000C4ED20AAA4F88430604AD5ED01BAB2F9B4
:104F60000030D5ED006AD5ED04AA5B4207EE903A19
:104F7000B2F902305B4208EE103AB8EEC88AB2F9D4
:104F80000430B8EEE77A68EE2BBA5B4207EE903A4F
:104F9000E6EE87BAF8EEE77AD5ED026A68EE2AAA5D
:104FA000E6EEA7BAD5ED036AC4ED1DBAE7EE26AA70
:104FB000D5ED056AE7EEA6AAD5ED076AC4ED1EAAEF
:104FC00028EE268AD5ED066AA7EE268A95ED087AA0
:104FD000A7EE878AD4ED227A84ED1F8A3BEE27BAAA
:104FE000DFED3F7A84ED22BA6AEEA7AA6BEEA7BA8C
:104FF0006AEEAACA28EE278AB0EE6C0AABEEAB0ABC
:10500000A8EE080A0BF030F98BEE80CAB0EE6C0AFD
:10501000ACEE0C0AA8EE080A0BF026F9CAEE80BA2C
:105020002BEEAB0AACEE0C0AA8EE080A0BF01CF94A
:1050300088EE000AB0EE4C8AA0EE288AB0EE6B7AB9
:1050400090EE687AD5ED037AD5ED006AD5ED04AA25
:1050500097ED010A68EE277A68EEEBBAE7EE267A5A
:10506000ECEE28BAD5ED066AEBEEA67A68EE2AAA2F
:10507000C4ED237AB0EE67CAD5ED017AE7EE27AA30
:10508000D5ED077AEBEEA7AAD5ED057AC4ED24AAF3
:1050900028EE278A2CE000BF4C1000208C10002046
:1050A0001C0000202C10002024150020000000000F
:1050B000CDCC4C3DF3665F3FC2B8B23E68100020D5
:1050C0009A9949C09A99494038100020FFFF7F7F84
:1050D000CDCC4C3ECDCCCC3DBD378635DC1E002042
:1050E00000008039201000205010002058A00B41F3
:1050F000D5ED027AA7EE278A20EE000A97ED007A16
:10510000D5ED087AA7EE070AABEEA78AD7ED027AAB
:1051100084ED258AA7EEA70A0BF0A6F8D5ED0A7A4A
:10512000F4EEE97AF1EE10FAB4EEC90A48BFC5ED23
:105130000A9AF1EE10FA00F1DB805FED147AB4EE1A
:10514000E70AF1EE10FA00F3D68080EE097A864B7A
:1051500095ED0A6A2CEE077AB4EEC90A67EE066A84
:10516000F1EE10FAC3ED006A00F1C880DFED7F7A3E
:10517000B4EEE70AF1EE10FA00F3C38080EE097A8C
:105180002AEE877AB4EEC90A27EE067AF1EE10FA13
:1051900083ED017A00F1B880DFED747AB4EEE70AAE
:1051A000F1EE10FA00F3B380C0EE097A3268D2074C
:1051B00068EE277A67EE867AC3ED027A0DD4B2EEF6
:1051C000006A66EE866A27EE067A67EE867AC3ED97
:1051D000006A83ED017AC3ED027AB4EECA0AF1EEF9
:1051E00010FA1FD59FED627AD4ED266A6CEE077A2D
:1051F0006AEE87AAEBEE276AD4ED277AC4ED266A19
:10520000EBEE2A7A28EE078AC4ED277AD4ED287AC5
:10521000EBEE087AC4ED287AD4ED297A37EE8BBA12
:1052200084ED29BAD4ED297AB1EE047AF4EEC77A86
:10523000F1EE10FA4CDB94ED197A94ED266A67EEE4
:10524000877AB1EE677AB4EEC76AF1EE10FA61D4EC
:10525000F4EE467AF1EE10FA48BFB0EE676AD4ED8C
:10526000276AB4EEE67AF1EE10FA56DCF4EE667ACE
:10527000F1EE10FA48BFF0EE676AD4ED285AB4EEAA
:10528000E57AF1EE10FA08DCF4EEE57AF1EE10FAC8
:1052900054BFB0EE657AB0EE677A364BC4ED268A1D
:1052A000D3ED007AC4ED278A37EE866AD3ED017A12
:1052B00083ED006A77EEA66AD3ED027AC3ED016A48
:1052C00037EE877AC4ED288A83ED027AC4ED298A05
:1052D000C4ED228A03B0BDEC0A8BBDE8F08FB0EEBE
:1052E000671A54E5F7EE007ADFE5F2EE047ADCE5C2
:1052F000B7EE007A2BE7B2EE047A28E7B7EE007A31
:105300003EE7B2EE047A3BE7F7EE007A4EE7F2EEC4
:10531000047A4BE7B0EE476AA1E7F0EE476AACE7E4
:10532000DBEEA8AA96E59FED147AD8ED007A67EE39
:10533000877AC8ED007AD8ED017A67EE877AC8EDF2
:10534000017AD8ED027A67EE877AC8ED027A03E631
:105350009FED0A7A6BEE87BA94ED287AA7EEAB7AC6
:1053600084ED287AEBE500BF1410002058A00B4113
:10537000728A0E3C08100020EC51783F0AD7233C7B
:1053800010B52F4CD4ED013A94ED046A94ED003A37
:1053900094ED037A94ED024AD4ED056A63EE867AC1
:1053A000F6EE005AE3EE077A8AB02146B0EE635A71
:1053B000E4EE267A07A8F0EE444A67EEA57AF0EE0E
:1053C000435AA6EE675AE6EEE74AA3EEE76AE4EE32
:1053D000676AE7EE675ACDED066AA3EE677AF0EEEC
:1053E000667A66EE646A8DED047AE5EE276A67EE0A
:1053F000E57ACDED075AE4EE877A27EE457A8DED12
:10540000085AA5EE867ACDED094A8DED056ACDEDF7
:10541000016ACDED027A8DED037A02F0CFF858B132
:1054200004F10C0104A802F0C9F828B104F1180134
:1054300001A802F0C3F808B9FEF796FA0AB010BD49
:105440001C000020324A136C90681944081A40F678
:105450008C23984270B513469160D06051603BD95F
:10546000117892F94520914221D10A1F082A1ED8AD
:1054700093F84620182A03DC013283F8462001E025
:1054800083F8441093F9442091421DD193F84700CA
:10549000D0B1204C002004F13C05824209DC1E48BA
:1054A00000240B2A0BDC20F812400132F9E700221D
:1054B000E3E754F8046F25F810600130EDE793F846
:1054C0006020013283F86020012283F84720002207
:1054D00083F845101A7070BD92F84710B9B1A0F268
:1054E000EF2440F2DA518C4208D811780B2905DC00
:1054F0000B1D0131117042F8230070BD002283F8AA
:105500004720104699180432302A0861FAD170BD3C
:1055100044110020501100208C110020024A136C0D
:1055200001330B441364704744110020034B03EB19
:105530008000436E1B681960704700BF4411002053
:10554000074B03EB8000436EA1F57A701A68198946
:105550004FF47A73414391FBF3F11160704700BF40
:105560004411002013B5012204466B4602210C2091
:1055700003F016FC10B9002002B010BD9DF80030F9
:10558000DA07F8D56B46072203210C2003F008FC4C
:105590000028F0D09DF806309B07ECD19DF8012043
:1055A0009DF800309DF8031043EA02231BB21D4A08
:1055B00007EE903A92ED007AF8EEE77A0C2067EE6B
:1055C000877A92ED017AFDEEE77A17EE903A238022
:1055D0009DF8023043EA01231BB207EE903AF8EE41
:1055E000E77A9DF8051067EE877A92ED027AFDEE74
:1055F000E77A012217EE903A63809DF8043043EA7F
:1056000001231BB207EE903AF8EEE77A0A2167EE23
:10561000877AFDEEE77A17EE903AA38003F0BCFCA0
:10562000AAE700BF4800002007B500220A210C208D
:1056300003F0B2FC1420FFF74EFA0F220A210C20CF
:1056400003F0AAFC0A20FFF746FA01AB032210215F
:105650000C2003F0A5FB0A20FFF73DFA9DF904207A
:105660009FED295ADFED295A294B06EE902AF8EED4
:10567000E66AF7EE007A76EEC56A9DF90520B0EE8F
:10568000677AA6EEA57A0A210C2006EE902AB3EEE0
:105690000E6AF8EEE66A27EE067A76EEC56A83EDC4
:1056A000007AB0EE677AA6EEA57A9DF9062027EE7D
:1056B000067A83ED017A07EE102AB8EEC77A002247
:1056C00037EE457AE7EE257A67EE867AC3ED027A01
:1056D00003F062FC0A20FFF7FEF90DF1030301223B
:1056E00002210C2003F05CFB0DF1030301220921D0
:1056F0000C2003F055FB01220A210C2003F04CFC86
:10570000012003B05DF804FB000000430000803B73
:1057100048000020F0B5046D8668236823F001037B
:1057200023608379054613F0020F407914BF4FF4CC
:105730000052002213F0040F14BF4FF480670027BB
:1057400010F0010F14BF042100218307206820F00E
:1057500001002060606820F4405042EA000262606C
:10576000236823F4B05323F00C0348BF41F0080131
:105770003B430B432360A36895B023F44073A360BD
:10578000684602F0C7FC284B9C4239D10C9A23682A
:105790001F0448BF5200B2FBF6F306FB1322B2EB24
:1057A000560F226828BF0133160406D5C3F3420200
:1057B00023F00F031B041B0C13439BB2A3816B79D3
:1057C000A87913F0020F0CBF00224FF4003200F052
:1057D0000101DC0748BF42F480322B6D01B35968E8
:1057E0000A435A609A6801074CBF42F0080222F04F
:1057F00008029A601A6842F001021A6015B0F0BD02
:105800000A4B9C4201D10D9AC1E7094B9C4201D140
:105810000E9ABCE7074B9C420CBF0F9A109AB6E752
:10582000596821EA0202DCE70038014000440040E8
:1058300000480040004C0040012803D023D3022838
:1058400012D07047174A19B94FF40043936170475B
:10585000012903D14FF4004313857047938A9BB20B
:1058600083F40043938270470E4A11B94FF480438A
:10587000ECE7012902D14FF48043EDE7938A9BB214
:1058800083F48043EEE7074A11B94FF40053DDE794
:10589000012902D14FF40053DEE7938A9BB283F4CF
:1058A0000053DFE700080048F7B506460D46002420
:1058B00001272A8807FA04F31A421AD0AA7800931B
:1058C00002F003038DF80430EB78022B03D0032B96
:1058D0000CBF032301238DF805306946C2F3011381
:1058E0003046C2F381028DF806308DF8072005F0AE
:1058F00027FB0134102CDCD103B0F0BD2DE9F743B8
:10590000DFF81C9299F894400746154600680A464D
:1059100098462946631C89F8943002F015FF3B89AC
:10592000ADF8043001A9022378688DF806308DF8AF
:105930000730FFF7B9FF97F80AE03A6809F19806CF
:1059400006EB04164946BEF10C0F36D8DFE80EF020
:10595000073535355735353582353535AC00136A61
:10596000DFF8C09123F001031362136AD2F804C078
:10597000906920F4803020F073004A4540F07000B8
:1059800034D009F500694A4530D009F540694A45E7
:105990002CD009F580694A4528D009F580694A4527
:1059A00024D043F00303C2F804C09061C2F83480ED
:1059B0001362936943F0080393613B7B1BB1536C03
:1059C00043F40043536413889BB243F001031380F4
:1059D0002301BEF10C0F00F28E80DFE80EF0878C01
:1059E0008C8C958C8C8C998C8C8C9D0023F00E0368
:1059F0002CF4407C43F003034CF4807CD3E7136A1F
:105A0000DFF8209123F010031362136AD2F804C068
:105A1000906920F0807020F4E6404A4540F4E04070
:105A20000FD009F500694A450BD043F03003C2F8A6
:105A300004C09061C2F838801362936943F4006334
:105A4000BAE723F0E0032CF4406C43F030034CF44D
:105A5000806CECE7136ADFF8CC9023F48073136258
:105A6000106AD2F804C0D3694A4523F0730343F0A7
:105A7000700310D009F500694A450CD040F440701D
:105A8000C2F804C0D361C2F83C801062D36943F00D
:105A90000803D36191E720F460602CF4405C40F48B
:105AA00040704CF4805CEBE7136ADFF8789023F4E5
:105AB00080531362106AD2F804C0D3694A4523F4B4
:105AC000E64343F4E04340F4405003D009F5006955
:105AD0004A4501D14CF4804CC2F804C0D361C2F8ED
:105AE00040801062D36943F40063D2E7C81802F122
:105AF0003404C0F8984019443046A1F8A050C1F8C9
:105B00009C2003B0BDE8F083C81802F13804F0E728
